{
  "_format": "hh-sol-artifact-1",
  "contractName": "SocialExchange",
  "sourceName": "contracts/post.sol",
  "abi": [
    {
      "inputs": [],
      "stateMutability": "nonpayable",
      "type": "constructor"
    },
    {
      "anonymous": false,
      "inputs": [
        {
          "indexed": true,
          "internalType": "address",
          "name": "owner",
          "type": "address"
        },
        {
          "indexed": false,
          "internalType": "uint256",
          "name": "postId",
          "type": "uint256"
        },
        {
          "indexed": false,
          "internalType": "string",
          "name": "content",
          "type": "string"
        },
        {
          "indexed": false,
          "internalType": "uint256",
          "name": "timestamp",
          "type": "uint256"
        }
      ],
      "name": "PostCreated",
      "type": "event"
    },
    {
      "inputs": [
        {
          "internalType": "string",
          "name": "_content",
          "type": "string"
        }
      ],
      "name": "createPost",
      "outputs": [],
      "stateMutability": "nonpayable",
      "type": "function"
    },
    {
      "inputs": [
        {
          "internalType": "uint256",
          "name": "_index",
          "type": "uint256"
        }
      ],
      "name": "getPost",
      "outputs": [
        {
          "internalType": "address",
          "name": "",
          "type": "address"
        },
        {
          "internalType": "string",
          "name": "",
          "type": "string"
        },
        {
          "internalType": "uint256",
          "name": "",
          "type": "uint256"
        }
      ],
      "stateMutability": "view",
      "type": "function"
    },
    {
      "inputs": [],
      "name": "getPostCount",
      "outputs": [
        {
          "internalType": "uint256",
          "name": "",
          "type": "uint256"
        }
      ],
      "stateMutability": "view",
      "type": "function"
    },
    {
      "inputs": [],
      "name": "getRecentPosts",
      "outputs": [
        {
          "internalType": "address[]",
          "name": "",
          "type": "address[]"
        },
        {
          "internalType": "string[]",
          "name": "",
          "type": "string[]"
        },
        {
          "internalType": "uint256[]",
          "name": "",
          "type": "uint256[]"
        }
      ],
      "stateMutability": "view",
      "type": "function"
    },
    {
      "inputs": [
        {
          "internalType": "uint256",
          "name": "",
          "type": "uint256"
        }
      ],
      "name": "posts",
      "outputs": [
        {
          "internalType": "address",
          "name": "owner",
          "type": "address"
        },
        {
          "internalType": "string",
          "name": "content",
          "type": "string"
        },
        {
          "internalType": "uint256",
          "name": "timestamp",
          "type": "uint256"
        }
      ],
      "stateMutability": "view",
      "type": "function"
    },
    {
      "inputs": [],
      "name": "registerUser",
      "outputs": [],
      "stateMutability": "nonpayable",
      "type": "function"
    },
    {
      "inputs": [
        {
          "internalType": "address",
          "name": "",
          "type": "address"
        }
      ],
      "name": "registeredUsers",
      "outputs": [
        {
          "internalType": "bool",
          "name": "",
          "type": "bool"
        }
      ],
      "stateMutability": "view",
      "type": "function"
    }
  ],
  "bytecode": "0x608060405234801561001057600080fd5b5060018060003373ffffffffffffffffffffffffffffffffffffffff1673ffffffffffffffffffffffffffffffffffffffff16815260200190815260200160002060006101000a81548160ff02191690831515021790555061157d806100776000396000f3fe608060405234801561001057600080fd5b506004361061007d5760003560e01c80634d3820eb1161005b5780634d3820eb1461011657806350499eaf14610120578063bcc9540714610140578063c7303c611461015e5761007d565b80630b1e7f83146100825780630e50cee5146100b457806340731c24146100e4575b600080fd5b61009c60048036038101906100979190610a32565b61017a565b6040516100ab93929190610b3f565b60405180910390f35b6100ce60048036038101906100c99190610ba9565b61025c565b6040516100db9190610bf1565b60405180910390f35b6100fe60048036038101906100f99190610a32565b61027c565b60405161010d93929190610b3f565b60405180910390f35b61011e610407565b005b610128610460565b60405161013793929190610e94565b60405180910390f35b610148610825565b6040516101559190610ee0565b60405180910390f35b61017860048036038101906101739190611030565b610831565b005b6000818154811061018a57600080fd5b90600052602060002090600302016000915090508060000160009054906101000a900473ffffffffffffffffffffffffffffffffffffffff16908060010180546101d3906110a8565b80601f01602080910402602001604051908101604052809291908181526020018280546101ff906110a8565b801561024c5780601f106102215761010080835404028352916020019161024c565b820191906000526020600020905b81548152906001019060200180831161022f57829003601f168201915b5050505050908060020154905083565b60016020528060005260406000206000915054906101000a900460ff1681565b600060606000808054905084106102c8576040517f08c379a00000000000000000000000000000000000000000000000000000000081526004016102bf90611125565b60405180910390fd5b60008085815481106102dd576102dc611145565b5b90600052602060002090600302016040518060600160405290816000820160009054906101000a900473ffffffffffffffffffffffffffffffffffffffff1673ffffffffffffffffffffffffffffffffffffffff1673ffffffffffffffffffffffffffffffffffffffff16815260200160018201805461035c906110a8565b80601f0160208091040260200160405190810160405280929190818152602001828054610388906110a8565b80156103d55780601f106103aa576101008083540402835291602001916103d5565b820191906000526020600020905b8154815290600101906020018083116103b857829003601f168201915b505050505081526020016002820154815250509050806000015181602001518260400151935093509350509193909250565b60018060003373ffffffffffffffffffffffffffffffffffffffff1673ffffffffffffffffffffffffffffffffffffffff16815260200190815260200160002060006101000a81548160ff021916908315150217905550565b60608060606000808054905067ffffffffffffffff81111561048557610484610f05565b5b6040519080825280602002602001820160405280156104b35781602001602082028036833780820191505090505b5090506000805b60008054905081101561054257610384600082815481106104de576104dd611145565b5b906000526020600020906003020160020154426104fb91906111a3565b1161052f578083838151811061051457610513611145565b5b602002602001018181525050818061052b906111d7565b9250505b808061053a906111d7565b9150506104ba565b5060008167ffffffffffffffff81111561055f5761055e610f05565b5b60405190808252806020026020018201604052801561058d5781602001602082028036833780820191505090505b50905060008267ffffffffffffffff8111156105ac576105ab610f05565b5b6040519080825280602002602001820160405280156105df57816020015b60608152602001906001900390816105ca5790505b50905060008367ffffffffffffffff8111156105fe576105fd610f05565b5b60405190808252806020026020018201604052801561062c5781602001602082028036833780820191505090505b50905060005b8481101561081157600086828151811061064f5761064e611145565b5b602002602001015190506000818154811061066d5761066c611145565b5b906000526020600020906003020160000160009054906101000a900473ffffffffffffffffffffffffffffffffffffffff168583815181106106b2576106b1611145565b5b602002602001019073ffffffffffffffffffffffffffffffffffffffff16908173ffffffffffffffffffffffffffffffffffffffff168152505060008181548110610700576106ff611145565b5b9060005260206000209060030201600101805461071c906110a8565b80601f0160208091040260200160405190810160405280929190818152602001828054610748906110a8565b80156107955780601f1061076a57610100808354040283529160200191610795565b820191906000526020600020905b81548152906001019060200180831161077857829003601f168201915b50505050508483815181106107ad576107ac611145565b5b6020026020010181905250600081815481106107cc576107cb611145565b5b9060005260206000209060030201600201548383815181106107f1576107f0611145565b5b602002602001018181525050508080610809906111d7565b915050610632565b508282829750975097505050505050909192565b60008080549050905090565b600160003373ffffffffffffffffffffffffffffffffffffffff1673ffffffffffffffffffffffffffffffffffffffff16815260200190815260200160002060009054906101000a900460ff166108bd576040517f08c379a00000000000000000000000000000000000000000000000000000000081526004016108b49061126b565b60405180910390fd5b600060405180606001604052803373ffffffffffffffffffffffffffffffffffffffff16815260200183815260200142815250908060018154018082558091505060019003906000526020600020906003020160009091909190915060008201518160000160006101000a81548173ffffffffffffffffffffffffffffffffffffffff021916908373ffffffffffffffffffffffffffffffffffffffff16021790555060208201518160010190816109759190611437565b506040820151816002015550503373ffffffffffffffffffffffffffffffffffffffff167f59141d2ba0498d14f8ec9adb677d17652b83c50c9ed1a54b5277e618532e1cc460016000805490506109cc91906111a3565b83426040516109dd93929190611509565b60405180910390a250565b6000604051905090565b600080fd5b600080fd5b6000819050919050565b610a0f816109fc565b8114610a1a57600080fd5b50565b600081359050610a2c81610a06565b92915050565b600060208284031215610a4857610a476109f2565b5b6000610a5684828501610a1d565b91505092915050565b600073ffffffffffffffffffffffffffffffffffffffff82169050919050565b6000610a8a82610a5f565b9050919050565b610a9a81610a7f565b82525050565b600081519050919050565b600082825260208201905092915050565b60005b83811015610ada578082015181840152602081019050610abf565b60008484015250505050565b6000601f19601f8301169050919050565b6000610b0282610aa0565b610b0c8185610aab565b9350610b1c818560208601610abc565b610b2581610ae6565b840191505092915050565b610b39816109fc565b82525050565b6000606082019050610b546000830186610a91565b8181036020830152610b668185610af7565b9050610b756040830184610b30565b949350505050565b610b8681610a7f565b8114610b9157600080fd5b50565b600081359050610ba381610b7d565b92915050565b600060208284031215610bbf57610bbe6109f2565b5b6000610bcd84828501610b94565b91505092915050565b60008115159050919050565b610beb81610bd6565b82525050565b6000602082019050610c066000830184610be2565b92915050565b600081519050919050565b600082825260208201905092915050565b6000819050602082019050919050565b610c4181610a7f565b82525050565b6000610c538383610c38565b60208301905092915050565b6000602082019050919050565b6000610c7782610c0c565b610c818185610c17565b9350610c8c83610c28565b8060005b83811015610cbd578151610ca48882610c47565b9750610caf83610c5f565b925050600181019050610c90565b5085935050505092915050565b600081519050919050565b600082825260208201905092915050565b6000819050602082019050919050565b600082825260208201905092915050565b6000610d1282610aa0565b610d1c8185610cf6565b9350610d2c818560208601610abc565b610d3581610ae6565b840191505092915050565b6000610d4c8383610d07565b905092915050565b6000602082019050919050565b6000610d6c82610cca565b610d768185610cd5565b935083602082028501610d8885610ce6565b8060005b85811015610dc45784840389528151610da58582610d40565b9450610db083610d54565b925060208a01995050600181019050610d8c565b50829750879550505050505092915050565b600081519050919050565b600082825260208201905092915050565b6000819050602082019050919050565b610e0b816109fc565b82525050565b6000610e1d8383610e02565b60208301905092915050565b6000602082019050919050565b6000610e4182610dd6565b610e4b8185610de1565b9350610e5683610df2565b8060005b83811015610e87578151610e6e8882610e11565b9750610e7983610e29565b925050600181019050610e5a565b5085935050505092915050565b60006060820190508181036000830152610eae8186610c6c565b90508181036020830152610ec28185610d61565b90508181036040830152610ed68184610e36565b9050949350505050565b6000602082019050610ef56000830184610b30565b92915050565b600080fd5b600080fd5b7f4e487b7100000000000000000000000000000000000000000000000000000000600052604160045260246000fd5b610f3d82610ae6565b810181811067ffffffffffffffff82111715610f5c57610f5b610f05565b5b80604052505050565b6000610f6f6109e8565b9050610f7b8282610f34565b919050565b600067ffffffffffffffff821115610f9b57610f9a610f05565b5b610fa482610ae6565b9050602081019050919050565b82818337600083830152505050565b6000610fd3610fce84610f80565b610f65565b905082815260208101848484011115610fef57610fee610f00565b5b610ffa848285610fb1565b509392505050565b600082601f83011261101757611016610efb565b5b8135611027848260208601610fc0565b91505092915050565b600060208284031215611046576110456109f2565b5b600082013567ffffffffffffffff811115611064576110636109f7565b5b61107084828501611002565b91505092915050565b7f4e487b7100000000000000000000000000000000000000000000000000000000600052602260045260246000fd5b600060028204905060018216806110c057607f821691505b6020821081036110d3576110d2611079565b5b50919050565b7f506f737420646f6573206e6f7420657869737400000000000000000000000000600082015250565b600061110f601383610aab565b915061111a826110d9565b602082019050919050565b6000602082019050818103600083015261113e81611102565b9050919050565b7f4e487b7100000000000000000000000000000000000000000000000000000000600052603260045260246000fd5b7f4e487b7100000000000000000000000000000000000000000000000000000000600052601160045260246000fd5b60006111ae826109fc565b91506111b9836109fc565b92508282039050818111156111d1576111d0611174565b5b92915050565b60006111e2826109fc565b91507fffffffffffffffffffffffffffffffffffffffffffffffffffffffffffffffff820361121457611213611174565b5b600182019050919050565b7f55736572206973206e6f74207265676973746572656400000000000000000000600082015250565b6000611255601683610aab565b91506112608261121f565b602082019050919050565b6000602082019050818103600083015261128481611248565b9050919050565b60008190508160005260206000209050919050565b60006020601f8301049050919050565b600082821b905092915050565b6000600883026112ed7fffffffffffffffffffffffffffffffffffffffffffffffffffffffffffffffff826112b0565b6112f786836112b0565b95508019841693508086168417925050509392505050565b6000819050919050565b600061133461132f61132a846109fc565b61130f565b6109fc565b9050919050565b6000819050919050565b61134e83611319565b61136261135a8261133b565b8484546112bd565b825550505050565b600090565b61137761136a565b611382818484611345565b505050565b5b818110156113a65761139b60008261136f565b600181019050611388565b5050565b601f8211156113eb576113bc8161128b565b6113c5846112a0565b810160208510156113d4578190505b6113e86113e0856112a0565b830182611387565b50505b505050565b600082821c905092915050565b600061140e600019846008026113f0565b1980831691505092915050565b600061142783836113fd565b9150826002028217905092915050565b61144082610aa0565b67ffffffffffffffff81111561145957611458610f05565b5b61146382546110a8565b61146e8282856113aa565b600060209050601f8311600181146114a1576000841561148f578287015190505b611499858261141b565b865550611501565b601f1984166114af8661128b565b60005b828110156114d7578489015182556001820191506020850194506020810190506114b2565b868310156114f457848901516114f0601f8916826113fd565b8355505b6001600288020188555050505b505050505050565b600060608201905061151e6000830186610b30565b81810360208301526115308185610af7565b905061153f6040830184610b30565b94935050505056fea2646970667358221220fc1cdc16c12f4e46c2291d82d063ed9a29f3e7268bb0568d0505544d1a44b4c064736f6c63430008140033",
  "linkReferences": {},
  "deployedLinkReferences": {}
}