{
  "_format": "hh-sol-artifact-1",
  "contractName": "TransactionRating",
  "sourceName": "contracts/TransactionRating.sol",
  "abi": [
    {
      "inputs": [
        {
          "internalType": "bytes32",
          "name": "txHash",
          "type": "bytes32"
        }
      ],
      "name": "getAverageRating",
      "outputs": [
        {
          "internalType": "uint256",
          "name": "",
          "type": "uint256"
        }
      ],
      "stateMutability": "view",
      "type": "function"
    },
    {
      "inputs": [
        {
          "internalType": "bytes32",
          "name": "txHash",
          "type": "bytes32"
        },
        {
          "internalType": "uint256",
          "name": "rating",
          "type": "uint256"
        }
      ],
      "name": "rateTransaction",
      "outputs": [],
      "stateMutability": "nonpayable",
      "type": "function"
    },
    {
      "inputs": [
        {
          "internalType": "bytes32",
          "name": "",
          "type": "bytes32"
        },
        {
          "internalType": "uint256",
          "name": "",
          "type": "uint256"
        }
      ],
      "name": "transactionRatings",
      "outputs": [
        {
          "internalType": "address",
          "name": "rater",
          "type": "address"
        },
        {
          "internalType": "uint256",
          "name": "rating",
          "type": "uint256"
        }
      ],
      "stateMutability": "view",
      "type": "function"
    }
  ],
  "bytecode": "0x608060405234801561001057600080fd5b50610630806100206000396000f3fe608060405234801561001057600080fd5b50600436106100415760003560e01c80635303104014610046578063ec6b683b14610076578063f9027cad146100a7575b600080fd5b610060600480360381019061005b919061030c565b6100c3565b60405161006d9190610352565b60405180910390f35b610090600480360381019061008b9190610399565b610162565b60405161009e92919061041a565b60405180910390f35b6100c160048036038101906100bc9190610399565b6101c3565b005b60008060008084815260200190815260200160002090506000805b828054905081101561012f578281815481106100fd576100fc610443565b5b9060005260206000209060020201600101548261011a91906104a1565b91508080610127906104d5565b9150506100de565b506000828054905011156101565781805490508161014d919061054c565b9250505061015d565b6000925050505b919050565b6000602052816000526040600020818154811061017e57600080fd5b9060005260206000209060020201600091509150508060000160009054906101000a900473ffffffffffffffffffffffffffffffffffffffff16908060010154905082565b600181101580156101d5575060058111155b610214576040517f08c379a000000000000000000000000000000000000000000000000000000000815260040161020b906105da565b60405180910390fd5b60008083815260200190815260200160002060405180604001604052803373ffffffffffffffffffffffffffffffffffffffff16815260200183815250908060018154018082558091505060019003906000526020600020906002020160009091909190915060008201518160000160006101000a81548173ffffffffffffffffffffffffffffffffffffffff021916908373ffffffffffffffffffffffffffffffffffffffff1602179055506020820151816001015550505050565b600080fd5b6000819050919050565b6102e9816102d6565b81146102f457600080fd5b50565b600081359050610306816102e0565b92915050565b600060208284031215610322576103216102d1565b5b6000610330848285016102f7565b91505092915050565b6000819050919050565b61034c81610339565b82525050565b60006020820190506103676000830184610343565b92915050565b61037681610339565b811461038157600080fd5b50565b6000813590506103938161036d565b92915050565b600080604083850312156103b0576103af6102d1565b5b60006103be858286016102f7565b92505060206103cf85828601610384565b9150509250929050565b600073ffffffffffffffffffffffffffffffffffffffff82169050919050565b6000610404826103d9565b9050919050565b610414816103f9565b82525050565b600060408201905061042f600083018561040b565b61043c6020830184610343565b9392505050565b7f4e487b7100000000000000000000000000000000000000000000000000000000600052603260045260246000fd5b7f4e487b7100000000000000000000000000000000000000000000000000000000600052601160045260246000fd5b60006104ac82610339565b91506104b783610339565b92508282019050808211156104cf576104ce610472565b5b92915050565b60006104e082610339565b91507fffffffffffffffffffffffffffffffffffffffffffffffffffffffffffffffff820361051257610511610472565b5b600182019050919050565b7f4e487b7100000000000000000000000000000000000000000000000000000000600052601260045260246000fd5b600061055782610339565b915061056283610339565b9250826105725761057161051d565b5b828204905092915050565b600082825260208201905092915050565b7f496e76616c696420726174696e672076616c7565000000000000000000000000600082015250565b60006105c460148361057d565b91506105cf8261058e565b602082019050919050565b600060208201905081810360008301526105f3816105b7565b905091905056fea26469706673582212205a6812884debf98ad93ddd931176a48fba416d6120312fd5cc5212efecdc12ae64736f6c63430008140033",
  "linkReferences": {},
  "deployedLinkReferences": {}
}